:100000000C94DA000C9402010C9402010C9402018D
:100010000C9402010C9402010C9402010C94020154
:100020000C9402010C9402010C9402010C94020144
:100030000C9402010C9402010C9402010C94020134
:100040000C9427060C9402010C9497060C947106EC
:100050000C9402010C9402010C9402010C94020114
:100060000C9402010C94020100407A10F35A00A093
:10007000724E18090010A5D4E80000E87648170071
:1000800000E40B54020000CA9A3B000000E1F505B1
:10009000000080969800000040420F000000A086FB
:1000A00001000000102700000000E803000000002D
:1000B0006400000000000A000000000001000000D1
:1000C00000002C76D888DC674F0823DFC1DFAE59EB
:1000D000E1B1B796E5E3E453C63AE651997696E87E
:1000E000E6C28426EB898C9B62ED407C6FFCEFBC02
:1000F0009C9F40F2BAA56FA5F490055A2AF75C932D
:100100006B6CF9676DC11BFCE0E40D47FEF520E662
:10011000B500D0ED902E0300943577050080841E45
:10012000080000204E0A000000C80C333333330FA0
:10013000986E12831141EF8D2114893BE65516CF3D
:10014000FEE6DB18D1844B381BF77C1D901DA4BB49
:10015000E424203284725E228100C9F124ECA1E5FE
:100160003D2700000000240027002A0000000000B6
:10017000250028002B0004040404040404040202E3
:100180000202020203030303030301020408102016
:100190004080010204081020010204081020000021
:1001A0000008000201000003040700000000000036
:1001B0000000C90611241FBECFEFD8E0DEBFCDBFBF
:1001C00022E0ACEAB1E001C01D92A538B207E1F728
:1001D00011E0A0E0B1E0E2EAF2E202C005900D9287
:1001E000AC3AB107D9F710E0CAEDD0E004C02197CE
:1001F000FE010E944D0FC93DD107C9F70E941307A8
:100200000C944F110C94000090E0FC01E256FE4F5C
:100210002491FC01E657FE4F3491FC01EA58FE4F51
:10022000E491EE2309F43CC0222339F1233091F00C
:1002300038F42130A9F0223001F584B58F7D12C049
:10024000273091F02830A1F02430B9F4809180005B
:100250008F7D03C0809180008F77809380000DC0D8
:1002600084B58F7784BD09C08091B0008F7703C0BB
:100270008091B0008F7D8093B000F0E0EE0FFF1F03
:10028000E459FE4FA591B4919FB7F894611104C051
:100290008C913095382302C0EC913E2B3C939FBF4C
:1002A0000895CF93DF9390E0FC01E657FE4F249131
:1002B000FC01EA58FE4F8491882361F190E0880F99
:1002C000991FFC01EE59FE4FC591D491FC01E459F0
:1002D000FE4FA591B491611109C09FB7F894888130
:1002E000209582238883EC912E230BC0623061F429
:1002F0009FB7F8948881322F309583238883EC91BF
:100300002E2B2C939FBF06C08FB7F894E8812E2B1D
:1003100028838FBFDF91CF9108958E3008F08E50E3
:100320008770806480937C0080917A0080648093E1
:100330007A0080917A0086FDFCCF80917800209130
:10034000790090E0922B08952FB7F8946091C8013E
:100350007091C9018091CA019091CB012FBF08957E
:10036000CF92DF92EF92FF920F931F93CF93DF9381
:100370006C017A018B01C0E0D0E0CE15DF0581F081
:10038000D8016D918D01D601ED91FC910190F08124
:10039000E02DC6010995892B11F02196EECF7E0143
:1003A000C701DF91CF911F910F91FF90EF90DF90E8
:1003B000CF900895FC01538D448D252F30E0842F7C
:1003C00090E0821B930B541710F0CF96089501977D
:1003D0000895FC01918D828D981761F0828DDF0167
:1003E000A80FB11D5D968C91928D9F5F9F73928F28
:1003F00090E008958FEF9FEF0895FC01918D828D1D
:10040000981731F0828DE80FF11D858D90E00895E9
:100410008FEF9FEF0895FC01918D228D892F90E041
:10042000805C9F4F821B91098F73992708958CECF4
:1004300091E00E940B0221E0892B09F420E0822F39
:100440000895FC01848DDF01A80FB11DA35ABF4F91
:100450002C91848D90E001968F739927848FA689C3
:10046000B7892C93A089B1898C91837080648C9317
:10047000938D848D981306C00288F389E02D8081C6
:100480008F7D80830895EF92FF920F931F93CF93F8
:10049000DF93EC0181E0888F9B8D8C8D981305C0D4
:1004A000E889F989808185FD26C0F62E0B8D10E044
:1004B0000F5F1F4F0F731127E02E8C8DE8120CC0B9
:1004C0000FB607FCFACFE889F989808185FFF5CF5F
:1004D000CE010E942102F1CF8B8DFE01E80FF11DAC
:1004E000E35AFF4FF0829FB7F8940B8FEA89FB899C
:1004F000808180620AC09FB7F894EE89FF8960838B
:10050000E889F98980818370806480839FBF81E05E
:1005100090E0DF91CF911F910F91FF90EF900895A0
:10052000CF93DF93EC01888D8823C9F0EA89FB899A
:10053000808185FD05C0A889B9898C9186FD0FC091
:100540000FB607FCF5CF808185FFF2CFA889B98966
:100550008C9185FFEDCFCE010E942102E7CFDF9184
:10056000CF91089580E090E0892B29F00E94170236
:1005700081110C9400000895CF93DF93EC0160E0AB
:100580008E810E94040161E08E810E94040160E07E
:100590008E810E9404018BE891E00197F1F7DF91D1
:1005A000CF910895CF92DF92EF92FF920F931F9316
:1005B000CF93DF936C017C0187E0E80EF11CC0E073
:1005C000D0E0062F10E0B8010C2E02C0759567959B
:1005D0000A94E2F76170F70181917F010E940401A2
:1005E0002196C430D10579F7C601DF91CF911F91D3
:1005F0000F91FF90EF90DF90CF900C94BC02CF92C0
:10060000DF92EF92FF920F931F93CF93DF93EC0152
:10061000F62E642F8C810E9404018D818F3F19F08A
:1006200060E00E9404018F850F2D10E084FF25C03B
:100630006E0187E0C80ED11CE12CF12CB8010E2C04
:1006400002C0759567950A94E2F76170F601819191
:100650006F010E940401FFEFEF1AFF0A88E0E8161D
:10066000F10461F7CE01DF91CF911F910F91FF90BF
:10067000EF90DF90CF900C94BC02B80184E07595A8
:1006800067958A95E1F7CE010E94D2026F2DCE01C7
:10069000DF91CF911F910F91FF90EF90DF90CF905E
:1006A0000C94D20240E0682F89E692E00C94FF029D
:1006B000CF93DF93823028F09091780298609093E6
:1006C000780280937C0210927D0280E480937E0207
:1006D00080E180937F0280E58093800261E08091D9
:1006E0006D020E94510180916E028F3F19F061E00E
:1006F0000E94510161E080916F020E945101C9E6A0
:10070000D2E09E01295632408091780284FD03C0D8
:1007100084E090E002C088E090E021962817390735
:100720002CF461E08E810E945101EBCF8BE39DE0C0
:100730000197F1F760E080916D020E94040160E092
:1007400080916F020E94040180916E028F3F19F028
:1007500060E00E9404018091780284FD20C063E083
:1007600089E692E00E94D202CBE4D6E4CE01019762
:10077000F1F763E089E692E00E94D2022197F1F757
:1007800063E089E692E00E94D20283E592E001975D
:10079000F1F762E089E692E00E94D20215C0806221
:1007A0000E9452038BE496E40197F1F7809178025E
:1007B00080620E94520383E592E00197F1F78091F5
:1007C000780280620E9452038091780280620E94C7
:1007D000520384E0809379028CE00E94520381E00E
:1007E0000E9452038BE39FE10197F1F782E080932F
:1007F0007A0286E0DF91CF910C94520341E00E948F
:10080000FF0281E090E00895089580E090E008956F
:10081000009769F0FC0101900020E9F73197AF01E2
:10082000481B590BBC018CEC91E00C94B00180E0AA
:1008300090E0089584E291E00C9408042F923F9296
:100840004F925F926F927F928F929F92AF92BF92E0
:10085000CF92DF92EF92FF920F931F93CF93DF938C
:10086000CDB7DEB7A4970FB6F894DEBF0FBECDBFED
:100870004B015C01F42E9B01AC010E94260F8823E2
:1008800019F087E291E027C024013501E89477F858
:100890002FEF3FEF4FE75FE7C301B2010E94260F42
:1008A00081110DC02FEF3FEF4FE75FE7C301B201AA
:1008B0000E94B80C18161CF48BE291E00CC02FEFCC
:1008C0003FEF4FE75FE4C501B4010E94210F181606
:1008D0002CF48FE291E00E940804B8C02FEF3FEFA4
:1008E0004FE75FECC501B4010E94B80C87FDF1CF62
:1008F00020E030E0A901C501B4010E94B80C87FFD7
:100900000BC06DE28CEC91E00E9443023C01B7FA0F
:10091000B094B7F8B09402C0612C712C10E060E084
:1009200070E080E09FE3F11641F020E030E040E22B
:1009300051E40E94800E1F5FF6CFA50194010E9432
:10094000140E4B015C010E94F20E6AA3C72ED82E32
:10095000E92E19A2262F372F482F592F8E010F5D10
:100960001F4F0BA31CA39AE0292E312C412C512C94
:10097000CA01B901A20191010E942B0F605DF8012B
:1009800062938F01211531054105510589F7CF018A
:100990000E9408048301080F191FFF2009F455C0A5
:1009A0006AA17C2D8D2D9E2D0E94BD0C9B01AC015A
:1009B000C501B4010E94130E4B015C016EE28CEC88
:1009C00091E00E944302080F191F8AE0282E312C63
:1009D000412C512C20E030E040E251E4C501B4014B
:1009E0000E941E0D4B015C010E94F20E9B0140E033
:1009F00050E019A2CBA0DCA0762E3AA3642EE52EFF
:100A0000CA01B901A20191010E942B0F605DF6019C
:100A100062936F01211531054105510589F7CF0119
:100A20000E940804080F191F672D7AA1862D9E2D9C
:100A30000E94BD0C9B01AC01C501B4010E94130EC4
:100A40004B015C01FA94F110C5CFC801A4960FB612
:100A5000F894DEBF0FBECDBFDF91CF911F910F91F4
:100A6000FF90EF90DF90CF90BF90AF909F908F90CE
:100A70007F906F905F904F903F902F900895CF930D
:100A8000DF93EC0188819981009711F00E94EB0FB0
:100A9000198218821D821C821B821A82DF91CF91DB
:100AA00008950E943A110F931F93CF93DF93EC01A7
:100AB00088819981009729F02A813B812617370781
:100AC00088F48B016F5F7F4F0E947410009761F074
:100AD000998388831B830A832C813D81232B11F406
:100AE000FC01108281E001C080E0DF91CF911F9175
:100AF0000F910895EF92FF920F931F93CF93DF937F
:100B0000EC01198218821B821A821D821C826115D7
:100B1000710521F18B01FB0101900020E9F731976C
:100B20007F01E61AF70AB7010E945305811109C037
:100B3000CE01DF91CF911F910F91FF90EF900C9418
:100B40003F05FD82EC82B80188819981DF91CF91C8
:100B50001F910F91FF90EF900C944811DF91CF916E
:100B60001F910F91FF90EF900895EF92FF920F93D6
:100B70001F93CF93DF936115710511F480E01CC0C2
:100B800041155105C1F07B01EC018C819D818A01E9
:100B9000080F191FB801CE010E945305882371F375
:100BA000288139818C819D81B701820F931F0E941A
:100BB00048111D830C8381E0DF91CF911F910F912C
:100BC000FF90EF900895CF93DF9300D0CDB7DEB7BD
:100BD00069831A8241E050E0BE016F5F7F4F0E943F
:100BE000B5050F900F90DF91CF910895EF92FF928E
:100BF0000F931F93CF93DF93CDB7DEB764970FB6F4
:100C0000F894DEBF0FBECDBF7C01CB01BA018E01CF
:100C10000F5F1F4F22E044E00E94340AFC01019064
:100C20000020E9F73197AF01481B590BBC01C70100
:100C30000E94B50564960FB6F894DEBF0FBECDBF17
:100C4000DF91CF911F910F91FF90EF9008951F9228
:100C50000F920FB60F9211242F933F938F939F9370
:100C6000AF93BF938091C8019091C901A091CA012F
:100C7000B091CB013091C70123E0230F2D3720F431
:100C80000196A11DB11D05C026E8230F0296A11DE6
:100C9000B11D2093C7018093C8019093C901A0930F
:100CA000CA01B093CB018091C3019091C401A0917E
:100CB000C501B091C6010196A11DB11D8093C3016C
:100CC0009093C401A093C501B093C601BF91AF91A9
:100CD0009F918F913F912F910F900FBE0F901F907A
:100CE00018951F920F920FB60F9211242F933F93D6
:100CF0004F935F936F937F938F939F93AF93BF9324
:100D0000EF93FF938CEC91E00E942102FF91EF9111
:100D1000BF91AF919F918F917F916F915F914F9113
:100D20003F912F910F900FBE0F901F9018951F921B
:100D30000F920FB60F9211242F938F939F93EF93DF
:100D4000FF93E091DC01F091DD018081E091E2010F
:100D5000F091E30182FD12C090818091E5018F5FE7
:100D60008F732091E601821751F0E091E501F0E0E8
:100D7000E453FE4F958F8093E50101C08081FF9180
:100D8000EF919F918F912F910F900FBE0F901F9019
:100D90001895ECECF1E01382128288EE93E0A0E06B
:100DA000B0E084839583A683B7838AE091E0918342
:100DB000808385EC90E09587848784EC90E097872A
:100DC000868780EC90E0918B808B81EC90E0938B18
:100DD000828B82EC90E0958B848B86EC90E0978BF5
:100DE000868B118E128E138E148EE9E6F2E013823A
:100DF00012828CE191E0918380838CE084838FEF79
:100E000085838BE0868385E0878384E0808783E029
:100E1000818782E082871386148615861686178658
:100E200081E00C945803CF93DF93CDB7DEB7EF97F3
:100E30000FB6F894DEBF0FBECDBF789484B5826044
:100E400084BD84B5816084BD85B5826085BD85B56E
:100E5000816085BD80916E00816080936E001092EC
:100E60008100809181008260809381008091810067
:100E700081608093810080918000816080938000F8
:100E80008091B10084608093B1008091B000816056
:100E90008093B00080917A00846080937A00809182
:100EA0007A00826080937A0080917A0081608093DA
:100EB0007A0080917A00806880937A001092C10055
:100EC00082E00E94580361E08DE00E94510160E0E1
:100ED0008EE00E94510160E08FE00E945101E0919C
:100EE000DC01F091DD0182E08083E091D801F09196
:100EF000D9011082E091DA01F091DB018FEC80835F
:100F00001092E401E091E001F091E10186E080833C
:100F1000E091DE01F091DF01808180618083E091CA
:100F2000DE01F091DF01808188608083E091DE0145
:100F3000F091DF01808180688083E091DE01F09193
:100F4000DF0180818F7D8083CE0101961C0108EC3A
:100F500010E0C12CD12CE12CF12C8EE00E948D01EF
:100F6000BC01990F880B990B0E94BF0C2AE038E254
:100F700040EA5BE30E941E0D4B015C019601A70154
:100F80000E94210F181614F4640175010150110913
:100F900021F708EC10E0712C612C512C412C8FE0D2
:100FA0000E948D01BC01990F880B990B0E94BF0C08
:100FB0002AE038E240EA5BE30E941E0D4B015C012F
:100FC000272D362D452D542D0E94210F181624F45F
:100FD000782C692C5A2C4B2C0150110901F72AE965
:100FE00039E949E15FE3B601C7010E94140E20E030
:100FF00030E042E852E40E941E0D23EF34E045E366
:101000005FE30E941E0D6B017C011BAE1AAE1DAE8C
:101010001CAE1FAE1EAE810122E044E00E94340AE5
:101020004C01009779F0FC0101900020E9F731971D
:101030005F01A81AB90AB501CE01CA960E945305EC
:10104000811105C0CE01CA960E943F0507C0BFAE00
:10105000AEAEB4018AAD9BAD0E94481163E371E06E
:10106000CE01C4960E947A054EAD5FAD6AAD7BADF0
:10107000CE01C4960E94B50566E5CE01C4960E94D5
:10108000E30520E030E040E250E4672D762D852D29
:10109000942D0E94130E2DEC3CEC4CE45EE30E9478
:1010A000800E23EF34E045E35FE30E941E0D4B0109
:1010B0005C016DE371E0CE018E960E947A05B50168
:1010C000A401CE018E960E94F6058CEC91E00E9460
:1010D0000B02181619064CF48CEC91E00E94E90101
:1010E0008093AC0191E09093AD018091AD01882394
:1010F00009F43FC08091AC018536D9F50E941A04ED
:1011000087E491E00E9408046091AE017091AF0104
:101110008091B0019091B10142E00E941E046AE406
:101120008CEC91E00E9443020E941A0420E030E01F
:101130004AE754E46091AE017091AF018091B00133
:101140009091B1010E94800E2FE135E84BE350E40D
:101150000E941E0D2B013C018FE591E00E940804C6
:1011600042E0C301B2010E941E040E941A041092C0
:10117000AD018091AD01882301F18091AC018F36E2
:10118000E1F40E94A4016093B6017093B7018093CB
:10119000B8019093B901442443944092BA010E944B
:1011A0001A0480E791E00E9408040E941A0461E09A
:1011B0008DE00E9404011092AD018091AD01882361
:1011C000C1F18091AC018636A1F50E941A0486E82F
:1011D00091E00E9408040E941A041092BA010E9431
:1011E000A4010091B2011091B3012091B40130919A
:1011F000B5014090B6015090B7016090B801709071
:10120000B9010419150926093709DC01CB01800F42
:10121000911FA21FB31F8093B2019093B301A093BB
:10122000B401B093B50160E08DE00E94040110921A
:10123000AD010E94A4010091BF011091C001209155
:10124000C1013091C2012B013C01401A510A620ACE
:10125000730A4EED441643E054066104710408F429
:10126000F4C06093BF017093C0018093C10190935B
:10127000C201A5019401C701B6010E941E0D6B01B8
:101280007C0120E030E040E450E40E94B80C87FD8F
:1012900009C0C092BB01D092BC01E092BD01F092A6
:1012A000BE0108C01092BB011092BC011092BD019A
:1012B0001092BE018091BA01882379F10E94A401A5
:1012C0000091B2011091B3012091B4013091B501A8
:1012D000C090B601D090B701E090B801F090B9018C
:1012E0000C191D092E093F09600F711F821F931FE2
:1012F00028EE33E040E050E00E942B0FCA01B90114
:101300000E94BD0C2091BB013091BC014091BD01F8
:101310005091BE010E941E0D20C06091B2017091DB
:10132000B3018091B4019091B5010E94BD0C209150
:10133000BB013091BC014091BD015091BE010E94A2
:101340001E0D9B01AC016091AE017091AF018091C7
:10135000B0019091B1010E94140E6093AE017093A0
:10136000AF018093B0019093B1016DE971E0CE01BE
:1013700088960E947A054091AE015091AF0160912C
:10138000B0017091B101CE0188960E94F6056AE421
:10139000CE0188960E94E305E1E080917C028111F4
:1013A000E0E0E195F0E0E759FD4F848980680E9414
:1013B000520365EA71E0CE0182960E947A050E948E
:1013C000A40128EE33E040E050E00E942B0FCA0158
:1013D000B9012AE0A1010E94540AF1010190002004
:1013E000E9F73197AF0142195309B101CE01829655
:1013F0000E94B50563E7CE0182960E94E3054EA1E7
:101400005FA16AA17BA189E692E00E94B001E09110
:101410007C02E23010F4E15001C0E1E0F0E0E75975
:10142000FD4F848980680E9452034CA55DA568A584
:1014300079A589E692E00E94B0018AA19BA10E9451
:10144000EB0F88A599A50E94EB0F8EA59FA50E9482
:10145000EB0F8CA99DA90E94EB0F8AAD9BAD0E945A
:10146000EB0F0E94B20273CDEF920F931F93CF93B5
:10147000DF93E80147FD02C034E001C034E1042EEF
:10148000000C550B57FF03C0519541955109E32EB0
:10149000022F242FAE010E94760ACE01DF91CF9158
:1014A0001F910F91EF900895BB27FA01A62F6217A5
:1014B000710581059105330B30FB66F0AA27660F95
:1014C000771F881F991FAA1FA21710F0A21B6395F0
:1014D0003850A9F7A05DAA3308F0A95DA19336F7AB
:1014E000B111B1931082CA010C94A80CA9E0B0E02C
:1014F000ECE7FAE00C94E20D6A01122FB02E2BE318
:10150000201720F0FF24F394F00E02C02CE3F22EFB
:101510000F2D27E0AE014F5F5F4F0E94D00BBC0143
:101520004981842F8970813031F0E1FC06C0E0FEF2
:1015300006C090E205C09DE203C09BE201C090E0BE
:101540005E2D507143FF3CC0911102C083E001C089
:1015500084E0811718F4212F281B01C020E05111CD
:101560000BC0F601822F30E2882319F031938150AD
:10157000FBCFC20ED11C20E0992329F0D6019C9309
:10158000F60131966F01C6010396E2FE0AC03EE401
:10159000D6013C9341E411964C93119712963C93DB
:1015A00006C03EE6F601308341E641833283FC010A
:1015B000322F40E2332309F442C041933150FACF35
:1015C00042FF44C0911102C083E001C084E0811752
:1015D00018F4212F281B01C020E051110BC0F60187
:1015E000822F30E2882319F031938150FBCFC20E55
:1015F000D11C20E0992329F0D6019C93F601319665
:101600006F01C6010396E2FE0BC039E4D6013C939C
:101610003EE411963C93119736E412963C9307C032
:1016200039E6F60130833EE6318336E63283FC014B
:10163000322F40E2332319F041933150FBCFFC01AC
:10164000E20FF11D10828EEF9FEFA6C021E030E087
:10165000911102C020E030E0161617061CF4FB01C1
:10166000319602C0E1E0F0E02E0F3F1FBB2021F0D9
:10167000EB2DF0E0319602C0E0E0F0E02E0F3F1FCE
:10168000E12FF0E02E173F071CF4121B212F01C0A1
:1016900020E08E2D887159F4F601822F30E28823E4
:1016A00019F031938150FBCFC20ED11C20E0992359
:1016B00029F0D6019C93F60131966F0151110BC0B0
:1016C000F601822F90E3882319F091938150FBCF8C
:1016D000C20ED11C20E00F2D060F9A81342F3071DD
:1016E00044FF03C0913309F40150101624F409306B
:1016F00018F008E001C001E0AB0177FF02C040E054
:1017000050E0FB01E41BF50BA1E0B0E0AC0FBD1F06
:10171000EA0FFB1F8EE2A82E4B01801A91080B2DB9
:1017200010E01195019511094F3FBFEF5B0721F4C0
:10173000D601AC9211966D01641775072CF08416D2
:10174000950614F4818101C080E34150510931961E
:10175000D60111967D014017510724F0D6018C93D4
:101760006701E2CF6417750739F4963320F4953397
:1017700019F4311101C081E3F6018083F701822F52
:1017800090E2882319F091938150FBCFF701E20F8B
:10179000F11D108280E090E02996ECE00C94FE0DA3
:1017A000283008F027E03327DA01990F311D87FD33
:1017B000916000966105710539F432602E5F3D93AA
:1017C00030E32A95E1F708959F3F30F080387105A6
:1017D000610509F03C5F3C5F3D93913008F0806803
:1017E000911DDF93CF931F930F93FF92EF92192FC9
:1017F000987F9695E92F96959695E90FFF27EE53DA
:10180000FF4F99273327EE24FF24A701E701059016
:101810000894079428F4360FE71EF81E491F511D3F
:10182000660F771F881F991F0694A1F705900794EC
:1018300028F4E70EF81E491F561FC11D770F881F99
:10184000991F661F0694A1F70590079428F4F80ED7
:10185000491F561FC71FD11D880F991F661F771F6D
:101860000694A1F70590079420F4490F561FC71F4F
:10187000D81F990F661F771F881F0694A9F78491B8
:101880001095177041F0D695C79557954795F794E1
:10189000E7941A95C1F7E8E6F0E068941590159181
:1018A00035916591959105907FE27395E118F10A64
:1018B000430B560BC90BD009C0F7E10CF11E431FB7
:1018C000561FC91FD01D7EF4703311F48A95E6CFE0
:1018D000E894015030F0080F0AF40027021708F4CA
:1018E000202F2395022F7A3328F079E37D932A95D0
:1018F000E9F710C07D932A9589F606949795679528
:10190000379517951794E118F10A430B560BC90B3D
:10191000D00998F023957E9173957A3308F070E39F
:101920007C932013B8F77E9170617D9330F083959E
:1019300071E37D9370E32A95E1F71124EF90FF9016
:101940000F911F91CF91DF91992787FD9095089571
:10195000DC01FC01672F71917723E1F7329704C016
:101960007C916D9370836291AE17BF07C8F30895A1
:101970000E94FA0C08F481E00895E89409C097FBEE
:101980003EF490958095709561957F4F8F4F9F4F56
:101990009923A9F0F92F96E9BB279395F69587959A
:1019A00077956795B795F111F8CFFAF4BB0F11F45D
:1019B00060FF1BC06F5F7F4F8F4F9F4F16C0882304
:1019C00011F096E911C0772321F09EE8872F762F3A
:1019D00005C0662371F096E8862F70E060E02AF07B
:1019E0009A95660F771F881FDAF7880F9695879567
:1019F00097F90895990F0008550FAA0BE0E8FEEF3C
:101A000016161706E807F907C0F012161306E407C2
:101A1000F50798F0621B730B840B950B39F40A26BB
:101A200061F0232B242B252B21F408950A2609F499
:101A3000A140A6958FEF811D811D08950E94310D53
:101A40000C94A20D0E94940D38F00E949B0D20F082
:101A5000952311F00C948B0D0C94910D11240C9482
:101A6000D60D0E94B30D70F3959FC1F3950F50E012
:101A7000551F629FF001729FBB27F00DB11D639F40
:101A8000AA27F00DB11DAA1F649F6627B00DA11DE6
:101A9000661F829F2227B00DA11D621F739FB00D8C
:101AA000A11D621F839FA00D611D221F749F3327FC
:101AB000A00D611D231F849F600D211D822F762F95
:101AC0006A2F11249F5750409AF0F1F088234AF072
:101AD000EE0FFF1FBB1F661F771F881F91505040DE
:101AE000A9F79E3F510580F00C948B0D0C94D60DF8
:101AF0005F3FE4F3983ED4F3869577956795B79565
:101B0000F795E7959F5FC1F7FE2B880F911D96957E
:101B1000879597F9089597F99F6780E870E060E0EE
:101B200008959FEF80EC089500240A941616170676
:101B300018060906089500240A94121613061406BE
:101B400005060895092E0394000C11F4882352F021
:101B5000BB0F40F4BF2B11F460FF04C06F5F7F4FD9
:101B60008F4F9F4F089557FD9058440F551F59F0C0
:101B70005F3F71F04795880F97FB991F61F09F3F7A
:101B800079F087950895121613061406551FF2CFA3
:101B90004695F1DF08C0161617061806991FF1CFF3
:101BA00086957105610508940895E894BB2766271A
:101BB0007727CB0197F908952F923F924F925F922A
:101BC0006F927F928F929F92AF92BF92CF92DF924D
:101BD000EF92FF920F931F93CF93DF93CDB7DEB7B2
:101BE000CA1BDB0B0FB6F894DEBF0FBECDBF099446
:101BF0002A88398848885F846E847D848C849B849D
:101C0000AA84B984C884DF80EE80FD800C811B81AA
:101C1000AA81B981CE0FD11D0FB6F894DEBF0FBED9
:101C2000CDBFED0108955058BB27AA270E942B0E67
:101C30000C94A20D0E94940D38F00E949B0D20F090
:101C400039F49F3F19F426F40C94910D0EF4E095AD
:101C5000E7FB0C948B0DE92F0E94B30D58F3BA17D4
:101C6000620773078407950720F079F4A6F50C94B2
:101C7000D50D0EF4E0950B2EBA2FA02D0B01B90156
:101C800090010C01CA01A0011124FF27591B99F0F2
:101C9000593F50F4503E68F11A16F040A22F232FFE
:101CA000342F4427585FF3CF469537952795A7954E
:101CB000F0405395C9F77EF41F16BA0B620B730BF5
:101CC000840BBAF09150A1F0FF0FBB1F661F771F66
:101CD000881FC2F70EC0BA0F621F731F841F48F41B
:101CE000879577956795B795F7959E3F08F0B0CFA4
:101CF0009395880F08F09927EE0F9795879508958B
:101D00000E94940E0C94A20D0E949B0D58F00E940C
:101D1000940D40F029F45F3F29F00C948B0D511184
:101D20000C94D60D0C94910D0E94B30D68F3992379
:101D3000B1F3552391F3951B550BBB27AA276217C7
:101D40007307840738F09F5F5F4F220F331F441FD4
:101D5000AA1FA9F335D00E2E3AF0E0E832D0915008
:101D60005040E695001CCAF72BD0FE2F29D0660FF5
:101D7000771F881FBB1F261737074807AB07B0E838
:101D800009F0BB0B802DBF01FF2793585F4F3AF03E
:101D90009E3F510578F00C948B0D0C94D60D5F3F4F
:101DA000E4F3983ED4F3869577956795B795F795C4
:101DB0009F5FC9F7880F911D9695879597F90895AC
:101DC000E1E0660F771F881FBB1F62177307840748
:101DD000BA0720F0621B730B840BBA0BEE1F88F757
:101DE000E09508950E94BB0D88F09F5798F0B92F99
:101DF0009927B751B0F0E1F0660F771F881F991F40
:101E00001AF0BA95C9F714C0B13091F00E94D50DFF
:101E1000B1E008950C94D50D672F782F8827B85F0F
:101E200039F0B93FCCF3869577956795B395D9F797
:101E30003EF490958095709561957F4F8F4F9F4FA1
:101E400008950E94FA0C08F48FEF08950E94FA0C8E
:101E5000880B990B0895A1E21A2EAA1BBB1BFD014A
:101E60000DC0AA1FBB1FEE1FFF1FA217B307E40779
:101E7000F50720F0A21BB30BE40BF50B661F771FD1
:101E8000881F991F1A9469F76095709580959095B1
:101E90009B01AC01BD01CF010895EE0FFF1F05901E
:101EA000F491E02D09940F931F93CF93DF93823029
:101EB000910510F482E090E0E0918302F0918402B9
:101EC00020E030E0A0E0B0E0309719F1408151818E
:101ED0000281138148175907C8F08417950769F4E0
:101EE000109731F012960C93129713961C9327C0FB
:101EF000009383021093840222C02115310519F04A
:101F00004217530718F49A01BD01EF01DF01F801F0
:101F1000DBCF21153105F9F0281B390B24303105B1
:101F200080F48A819B816115710521F0FB01938307
:101F3000828304C09093840280938302FE013296D0
:101F400044C0FE01E20FF31F8193919322503109A7
:101F5000398328833AC02091810230918202232B59
:101F600041F42091020130910301309382022093C9
:101F7000810220910001309101012115310541F4C8
:101F80002DB73EB74091040150910501241B350B3C
:101F9000E0918102F0918202E217F307A0F42E1B78
:101FA0003F0B2817390778F0AC014E5F5F4F2417BD
:101FB000350748F04E0F5F1F509382024093810215
:101FC0008193919302C0E0E0F0E0CF01DF91CF91E7
:101FD0001F910F910895CF93DF93009709F481C06B
:101FE000FC01329713821282A0918302B091840285
:101FF000109781F420813181820F931F20918102FB
:10200000309182022817390751F5F0938202E0934C
:10201000810267C0ED0120E030E0CE17DF0740F419
:102020004A815B819E0141155105F1F0EA01F5CF2E
:10203000D383C28340815181840F951FC817D9076C
:1020400059F488819981840F951F0296918380832A
:102050008A819B81938382832115310529F4F09332
:102060008402E09383023DC0E901FB83EA83499146
:102070005991C40FD51FEC17FD0761F48081918140
:10208000840F951F0296E901998388838281938149
:102090009B838A83E0E0F0E012968D919C911397E8
:1020A000009719F0FD01DC01F7CF8D919C911197FC
:1020B0009D012E5F3F4F820F931F2091810230912F
:1020C00082022817390769F4309729F410928402A4
:1020D0001092830202C013821282B0938202A093F4
:1020E0008102DF91CF910895A0E0B0E0EAE7F0E14E
:1020F0000C94E00DEC01009721F4CB010E94530FEA
:10210000B4C0FC01E60FF71F9C0122503109E21711
:10211000F30708F4A8C0D9010D911C911197061777
:102120001707B0F00530110508F49BC0C8010497EB
:102130008617970708F495C002501109061B170B64
:10214000019311936D937C93CF010E94EB0F89C093
:102150005B01A01AB10A4C01800E911EA09183026E
:10216000B0918402612C712CE12CF12C109709F4B0
:1021700046C08D919C911197A815B905B1F56C01D8
:1021800042E0C40ED11CCA14DB0478F14C018A1859
:102190009B08640142E0C40ED11C1296BC901297B9
:1021A0001396AC91B5E0CB16D10440F0B282A38374
:1021B00091828082D9016D937C9309C00E5F1F4F7D
:1021C000800F911FF90191838083EB2DFA2FE11489
:1021D000F10431F0D7011396FC93EE93129741C0AE
:1021E000F0938402E09383023CC06816790608F4F9
:1021F0003C017D0112960D90BC91A02DB7CF80912E
:1022000081029091820288169906E1F4661677069B
:10221000C8F48091000190910101009741F48DB7BD
:102220009EB74091040150910501841B950BE8175E
:10223000F907C8F4F0938202E0938102F9017183F7
:1022400060830FC0CB010E94530F7C01009759F0AF
:10225000A801BE010E943F11CE010E94EB0FC701F1
:1022600004C0CE0102C080E090E0CDB7DEB7EEE062
:102270000C94FC0D81E090E0F8940C944F11FB015C
:10228000DC0102C001900D9241505040D8F70895F2
:10229000FB01DC0101900D920020E1F70895F89414
:0222A000FFCF6E
:1022A200000085028000000000004302B001DA0154
:1022B20090020B02E901FD0100000000FE03B001E3
:1022C200050404040D0A006E616E00696E66006FFB
:1022D200766600566F6C746167653A2000437572CA
:1022E20072656E743A200054686520456E657267A7
:1022F2007920636F6E73756D656420697320005475
:1023020068652070726963652069732052732000CA
:10231200546865204C6F6164206973207475726E15
:102322006564204F4E00546865204C6F61642069DB
:1023320073207475726E6564204F464600456E6563
:0C2342007267793A0054696D653A00003A
:00000001FF
